{
  "_format": "hh-sol-artifact-1",
  "contractName": "Instagram",
  "sourceName": "contracts/Instagram.sol",
  "abi": [
    {
      "inputs": [
        {
          "internalType": "uint256",
          "name": "postId",
          "type": "uint256"
        }
      ],
      "name": "PostDoesNotExist",
      "type": "error"
    },
    {
      "anonymous": false,
      "inputs": [
        {
          "indexed": true,
          "internalType": "uint256",
          "name": "postId",
          "type": "uint256"
        },
        {
          "indexed": false,
          "internalType": "address",
          "name": "user",
          "type": "address"
        }
      ],
      "name": "Like",
      "type": "event"
    },
    {
      "anonymous": false,
      "inputs": [
        {
          "indexed": true,
          "internalType": "uint256",
          "name": "postId",
          "type": "uint256"
        },
        {
          "indexed": true,
          "internalType": "string",
          "name": "uri",
          "type": "string"
        },
        {
          "indexed": true,
          "internalType": "string",
          "name": "description",
          "type": "string"
        },
        {
          "indexed": false,
          "internalType": "address",
          "name": "owner",
          "type": "address"
        }
      ],
      "name": "PostAdded",
      "type": "event"
    },
    {
      "anonymous": false,
      "inputs": [
        {
          "indexed": true,
          "internalType": "uint256",
          "name": "postId",
          "type": "uint256"
        },
        {
          "indexed": false,
          "internalType": "address",
          "name": "user",
          "type": "address"
        }
      ],
      "name": "Unlike",
      "type": "event"
    },
    {
      "inputs": [
        {
          "components": [
            {
              "internalType": "string",
              "name": "description",
              "type": "string"
            },
            {
              "internalType": "string",
              "name": "uri",
              "type": "string"
            }
          ],
          "internalType": "struct Instagram.Post",
          "name": "_post",
          "type": "tuple"
        }
      ],
      "name": "addPost",
      "outputs": [],
      "stateMutability": "nonpayable",
      "type": "function"
    },
    {
      "inputs": [
        {
          "internalType": "uint256",
          "name": "_start",
          "type": "uint256"
        },
        {
          "internalType": "uint256",
          "name": "_end",
          "type": "uint256"
        }
      ],
      "name": "getAllPosts",
      "outputs": [
        {
          "components": [
            {
              "internalType": "string",
              "name": "description",
              "type": "string"
            },
            {
              "internalType": "string",
              "name": "uri",
              "type": "string"
            }
          ],
          "internalType": "struct Instagram.Post[]",
          "name": "",
          "type": "tuple[]"
        }
      ],
      "stateMutability": "view",
      "type": "function"
    },
    {
      "inputs": [
        {
          "internalType": "uint256",
          "name": "_postId",
          "type": "uint256"
        }
      ],
      "name": "getLikesOfPost",
      "outputs": [
        {
          "internalType": "uint256",
          "name": "",
          "type": "uint256"
        }
      ],
      "stateMutability": "view",
      "type": "function"
    },
    {
      "inputs": [
        {
          "internalType": "uint256",
          "name": "_postId",
          "type": "uint256"
        }
      ],
      "name": "getPost",
      "outputs": [
        {
          "components": [
            {
              "internalType": "string",
              "name": "description",
              "type": "string"
            },
            {
              "internalType": "string",
              "name": "uri",
              "type": "string"
            }
          ],
          "internalType": "struct Instagram.Post",
          "name": "",
          "type": "tuple"
        }
      ],
      "stateMutability": "view",
      "type": "function"
    },
    {
      "inputs": [
        {
          "internalType": "address",
          "name": "_user",
          "type": "address"
        },
        {
          "internalType": "uint256",
          "name": "_postId",
          "type": "uint256"
        }
      ],
      "name": "getPostUser",
      "outputs": [
        {
          "components": [
            {
              "internalType": "string",
              "name": "description",
              "type": "string"
            },
            {
              "internalType": "string",
              "name": "uri",
              "type": "string"
            }
          ],
          "internalType": "struct Instagram.Post",
          "name": "",
          "type": "tuple"
        }
      ],
      "stateMutability": "view",
      "type": "function"
    },
    {
      "inputs": [
        {
          "internalType": "address",
          "name": "_user",
          "type": "address"
        }
      ],
      "name": "getPostsCounterByUser",
      "outputs": [
        {
          "internalType": "uint256",
          "name": "",
          "type": "uint256"
        }
      ],
      "stateMutability": "view",
      "type": "function"
    },
    {
      "inputs": [
        {
          "internalType": "uint256",
          "name": "_postId",
          "type": "uint256"
        }
      ],
      "name": "getUri",
      "outputs": [
        {
          "internalType": "string",
          "name": "",
          "type": "string"
        }
      ],
      "stateMutability": "view",
      "type": "function"
    },
    {
      "inputs": [
        {
          "internalType": "uint256",
          "name": "_postId",
          "type": "uint256"
        }
      ],
      "name": "like",
      "outputs": [],
      "stateMutability": "nonpayable",
      "type": "function"
    },
    {
      "inputs": [],
      "name": "s_postCounterId",
      "outputs": [
        {
          "internalType": "uint256",
          "name": "",
          "type": "uint256"
        }
      ],
      "stateMutability": "view",
      "type": "function"
    },
    {
      "inputs": [
        {
          "internalType": "uint256",
          "name": "_postId",
          "type": "uint256"
        }
      ],
      "name": "unlike",
      "outputs": [],
      "stateMutability": "nonpayable",
      "type": "function"
    }
  ],
  "bytecode": "0x608060405234801561001057600080fd5b50611ba1806100206000396000f3fe608060405234801561001057600080fd5b506004361061009e5760003560e01c806377f47e861161006657806377f47e861461017f57806382cfb2701461019b5780639be69d6c146101b9578063da0544aa146101e9578063e82935da146102195761009e565b80631fcda535146100a35780632895a7d8146100d357806340731c241461010357806374d21ae0146101335780637519995e1461014f575b600080fd5b6100bd60048036038101906100b89190610fbb565b610235565b6040516100ca9190611001565b60405180910390f35b6100ed60048036038101906100e89190611048565b61027e565b6040516100fa919061121e565b60405180910390f35b61011d60048036038101906101189190611240565b610516565b60405161012a91906112b1565b60405180910390f35b61014d60048036038101906101489190611240565b6106bb565b005b610169600480360381019061016491906112d3565b6108e9565b60405161017691906112b1565b60405180910390f35b610199600480360381019061019491906114da565b610acc565b005b6101a3610cb6565b6040516101b09190611001565b60405180910390f35b6101d360048036038101906101ce9190611240565b610cbc565b6040516101e09190611001565b60405180910390f35b61020360048036038101906101fe9190611240565b610d30565b604051610210919061156d565b60405180910390f35b610233600480360381019061022e9190611240565b610e2c565b005b6000600360008373ffffffffffffffffffffffffffffffffffffffff1673ffffffffffffffffffffffffffffffffffffffff168152602001908152602001600020549050919050565b606060008311801561028f57508282115b6102ce576040517f08c379a00000000000000000000000000000000000000000000000000000000081526004016102c5906115db565b60405180910390fd5b816000541015610313576040517f08c379a000000000000000000000000000000000000000000000000000000000815260040161030a90611647565b60405180910390fd5b6000600184846103239190611696565b61032d91906116ca565b905060008167ffffffffffffffff81111561034b5761034a611318565b5b60405190808252806020026020018201604052801561038457816020015b610371610f2f565b8152602001906001900390816103695790505b50905060005b8281101561050a576001600082886103a291906116ca565b81526020019081526020016000206040518060400160405290816000820180546103cb9061172d565b80601f01602080910402602001604051908101604052809291908181526020018280546103f79061172d565b80156104445780601f1061041957610100808354040283529160200191610444565b820191906000526020600020905b81548152906001019060200180831161042757829003601f168201915b5050505050815260200160018201805461045d9061172d565b80601f01602080910402602001604051908101604052809291908181526020018280546104899061172d565b80156104d65780601f106104ab576101008083540402835291602001916104d6565b820191906000526020600020905b8154815290600101906020018083116104b957829003601f168201915b5050505050815250508282815181106104f2576104f161175e565b5b6020026020010181905250808060010191505061038a565b50809250505092915050565b61051e610f2f565b8160005481118061052f5750600081145b1561057157806040517f018ef78a0000000000000000000000000000000000000000000000000000000081526004016105689190611001565b60405180910390fd5b6001600084815260200190815260200160002060405180604001604052908160008201805461059f9061172d565b80601f01602080910402602001604051908101604052809291908181526020018280546105cb9061172d565b80156106185780601f106105ed57610100808354040283529160200191610618565b820191906000526020600020905b8154815290600101906020018083116105fb57829003601f168201915b505050505081526020016001820180546106319061172d565b80601f016020809104026020016040519081016040528092919081815260200182805461065d9061172d565b80156106aa5780601f1061067f576101008083540402835291602001916106aa565b820191906000526020600020905b81548152906001019060200180831161068d57829003601f168201915b505050505081525050915050919050565b806000548111806106cc5750600081145b1561070e57806040517f018ef78a0000000000000000000000000000000000000000000000000000000081526004016107059190611001565b60405180910390fd5b600060046000848152602001908152602001600020905060005b81805490508110156108ab573373ffffffffffffffffffffffffffffffffffffffff1682828154811061075e5761075d61175e565b5b9060005260206000200160009054906101000a900473ffffffffffffffffffffffffffffffffffffffff1673ffffffffffffffffffffffffffffffffffffffff160361089e57600082600184805490506107b89190611696565b815481106107c9576107c861175e565b5b9060005260206000200160009054906101000a900473ffffffffffffffffffffffffffffffffffffffff1690508083838154811061080a5761080961175e565b5b9060005260206000200160006101000a81548173ffffffffffffffffffffffffffffffffffffffff021916908373ffffffffffffffffffffffffffffffffffffffff160217905550828054806108635761086261178d565b5b6001900381819060005260206000200160006101000a81549073ffffffffffffffffffffffffffffffffffffffff02191690559055506108ab565b8080600101915050610728565b50827f59b64a402d5e7d57bd1da203ec10442e896570cfc641d11b1eb0d71a71469c14336040516108dc91906117cb565b60405180910390a2505050565b6108f1610f2f565b816000548111806109025750600081145b1561094457806040517f018ef78a00000000000000000000000000000000000000000000000000000000815260040161093b9190611001565b60405180910390fd5b600260008573ffffffffffffffffffffffffffffffffffffffff1673ffffffffffffffffffffffffffffffffffffffff16815260200190815260200160002060008481526020019081526020016000206040518060400160405290816000820180546109af9061172d565b80601f01602080910402602001604051908101604052809291908181526020018280546109db9061172d565b8015610a285780601f106109fd57610100808354040283529160200191610a28565b820191906000526020600020905b815481529060010190602001808311610a0b57829003601f168201915b50505050508152602001600182018054610a419061172d565b80601f0160208091040260200160405190810160405280929190818152602001828054610a6d9061172d565b8015610aba5780601f10610a8f57610100808354040283529160200191610aba565b820191906000526020600020905b815481529060010190602001808311610a9d57829003601f168201915b50505050508152505091505092915050565b600081602001515111610b14576040517f08c379a0000000000000000000000000000000000000000000000000000000008152600401610b0b90611832565b60405180910390fd5b600080815480929190610b2690611852565b91905055508060016000805481526020019081526020016000206000820151816000019081610b559190611a46565b506020820151816001019081610b6b9190611a46565b5090505080600260003373ffffffffffffffffffffffffffffffffffffffff1673ffffffffffffffffffffffffffffffffffffffff1681526020019081526020016000206000805481526020019081526020016000206000820151816000019081610bd69190611a46565b506020820151816001019081610bec9190611a46565b50905050600360003373ffffffffffffffffffffffffffffffffffffffff1673ffffffffffffffffffffffffffffffffffffffff1681526020019081526020016000206000815480929190610c4090611852565b91905055508060000151604051610c579190611b54565b60405180910390208160200151604051610c719190611b54565b60405180910390206000547f0e9e8f5a88cc20883dce85570a0ca11332747be47771424776d579bb89331f6233604051610cab91906117cb565b60405180910390a450565b60005481565b600081600054811180610ccf5750600081145b15610d1157806040517f018ef78a000000000000000000000000000000000000000000000000000000008152600401610d089190611001565b60405180910390fd5b6004600084815260200190815260200160002080549050915050919050565b606081600054811180610d435750600081145b15610d8557806040517f018ef78a000000000000000000000000000000000000000000000000000000008152600401610d7c9190611001565b60405180910390fd5b600160008481526020019081526020016000206001018054610da69061172d565b80601f0160208091040260200160405190810160405280929190818152602001828054610dd29061172d565b8015610e1f5780601f10610df457610100808354040283529160200191610e1f565b820191906000526020600020905b815481529060010190602001808311610e0257829003601f168201915b5050505050915050919050565b80600054811180610e3d5750600081145b15610e7f57806040517f018ef78a000000000000000000000000000000000000000000000000000000008152600401610e769190611001565b60405180910390fd5b60046000838152602001908152602001600020339080600181540180825580915050600190039060005260206000200160009091909190916101000a81548173ffffffffffffffffffffffffffffffffffffffff021916908373ffffffffffffffffffffffffffffffffffffffff160217905550817fda935a3772736202dd12b1bc54cb3460939e447d95d5648c6dbd89836121823a33604051610f2391906117cb565b60405180910390a25050565b604051806040016040528060608152602001606081525090565b6000604051905090565b600080fd5b600080fd5b600073ffffffffffffffffffffffffffffffffffffffff82169050919050565b6000610f8882610f5d565b9050919050565b610f9881610f7d565b8114610fa357600080fd5b50565b600081359050610fb581610f8f565b92915050565b600060208284031215610fd157610fd0610f53565b5b6000610fdf84828501610fa6565b91505092915050565b6000819050919050565b610ffb81610fe8565b82525050565b60006020820190506110166000830184610ff2565b92915050565b61102581610fe8565b811461103057600080fd5b50565b6000813590506110428161101c565b92915050565b6000806040838503121561105f5761105e610f53565b5b600061106d85828601611033565b925050602061107e85828601611033565b9150509250929050565b600081519050919050565b600082825260208201905092915050565b6000819050602082019050919050565b600081519050919050565b600082825260208201905092915050565b60005b838110156110ee5780820151818401526020810190506110d3565b60008484015250505050565b6000601f19601f8301169050919050565b6000611116826110b4565b61112081856110bf565b93506111308185602086016110d0565b611139816110fa565b840191505092915050565b60006040830160008301518482036000860152611161828261110b565b9150506020830151848203602086015261117b828261110b565b9150508091505092915050565b60006111948383611144565b905092915050565b6000602082019050919050565b60006111b482611088565b6111be8185611093565b9350836020820285016111d0856110a4565b8060005b8581101561120c57848403895281516111ed8582611188565b94506111f88361119c565b925060208a019950506001810190506111d4565b50829750879550505050505092915050565b6000602082019050818103600083015261123881846111a9565b905092915050565b60006020828403121561125657611255610f53565b5b600061126484828501611033565b91505092915050565b6000604083016000830151848203600086015261128a828261110b565b915050602083015184820360208601526112a4828261110b565b9150508091505092915050565b600060208201905081810360008301526112cb818461126d565b905092915050565b600080604083850312156112ea576112e9610f53565b5b60006112f885828601610fa6565b925050602061130985828601611033565b9150509250929050565b600080fd5b7f4e487b7100000000000000000000000000000000000000000000000000000000600052604160045260246000fd5b611350826110fa565b810181811067ffffffffffffffff8211171561136f5761136e611318565b5b80604052505050565b6000611382610f49565b905061138e8282611347565b919050565b600080fd5b600080fd5b600080fd5b600067ffffffffffffffff8211156113bd576113bc611318565b5b6113c6826110fa565b9050602081019050919050565b82818337600083830152505050565b60006113f56113f0846113a2565b611378565b9050828152602081018484840111156114115761141061139d565b5b61141c8482856113d3565b509392505050565b600082601f83011261143957611438611398565b5b81356114498482602086016113e2565b91505092915050565b60006040828403121561146857611467611313565b5b6114726040611378565b9050600082013567ffffffffffffffff81111561149257611491611393565b5b61149e84828501611424565b600083015250602082013567ffffffffffffffff8111156114c2576114c1611393565b5b6114ce84828501611424565b60208301525092915050565b6000602082840312156114f0576114ef610f53565b5b600082013567ffffffffffffffff81111561150e5761150d610f58565b5b61151a84828501611452565b91505092915050565b600082825260208201905092915050565b600061153f826110b4565b6115498185611523565b93506115598185602086016110d0565b611562816110fa565b840191505092915050565b600060208201905081810360008301526115878184611534565b905092915050565b7f5374617274206d7573742062652067726561746572207468616e203000000000600082015250565b60006115c5601c83611523565b91506115d08261158f565b602082019050919050565b600060208201905081810360008301526115f4816115b8565b9050919050565b7f456e642069732067726561746572207468616e20746f74616c20706f73747300600082015250565b6000611631601f83611523565b915061163c826115fb565b602082019050919050565b6000602082019050818103600083015261166081611624565b9050919050565b7f4e487b7100000000000000000000000000000000000000000000000000000000600052601160045260246000fd5b60006116a182610fe8565b91506116ac83610fe8565b92508282039050818111156116c4576116c3611667565b5b92915050565b60006116d582610fe8565b91506116e083610fe8565b92508282019050808211156116f8576116f7611667565b5b92915050565b7f4e487b7100000000000000000000000000000000000000000000000000000000600052602260045260246000fd5b6000600282049050600182168061174557607f821691505b602082108103611758576117576116fe565b5b50919050565b7f4e487b7100000000000000000000000000000000000000000000000000000000600052603260045260246000fd5b7f4e487b7100000000000000000000000000000000000000000000000000000000600052603160045260246000fd5b6117c581610f7d565b82525050565b60006020820190506117e060008301846117bc565b92915050565b7f5572692063616e277420626520656d7074790000000000000000000000000000600082015250565b600061181c601283611523565b9150611827826117e6565b602082019050919050565b6000602082019050818103600083015261184b8161180f565b9050919050565b600061185d82610fe8565b91507fffffffffffffffffffffffffffffffffffffffffffffffffffffffffffffffff820361188f5761188e611667565b5b600182019050919050565b60008190508160005260206000209050919050565b60006020601f8301049050919050565b600082821b905092915050565b6000600883026118fc7fffffffffffffffffffffffffffffffffffffffffffffffffffffffffffffffff826118bf565b61190686836118bf565b95508019841693508086168417925050509392505050565b6000819050919050565b600061194361193e61193984610fe8565b61191e565b610fe8565b9050919050565b6000819050919050565b61195d83611928565b6119716119698261194a565b8484546118cc565b825550505050565b600090565b611986611979565b611991818484611954565b505050565b5b818110156119b5576119aa60008261197e565b600181019050611997565b5050565b601f8211156119fa576119cb8161189a565b6119d4846118af565b810160208510156119e3578190505b6119f76119ef856118af565b830182611996565b50505b505050565b600082821c905092915050565b6000611a1d600019846008026119ff565b1980831691505092915050565b6000611a368383611a0c565b9150826002028217905092915050565b611a4f826110b4565b67ffffffffffffffff811115611a6857611a67611318565b5b611a72825461172d565b611a7d8282856119b9565b600060209050601f831160018114611ab05760008415611a9e578287015190505b611aa88582611a2a565b865550611b10565b601f198416611abe8661189a565b60005b82811015611ae657848901518255600182019150602085019450602081019050611ac1565b86831015611b035784890151611aff601f891682611a0c565b8355505b6001600288020188555050505b505050505050565b600081905092915050565b6000611b2e826110b4565b611b388185611b18565b9350611b488185602086016110d0565b80840191505092915050565b6000611b608284611b23565b91508190509291505056fea2646970667358221220b22a47f00c238b5c980ae6b3e10eb5cad9da92d96997ae5419aa67006cc9c8cc64736f6c63430008180033",
  "linkReferences": {},
  "deployedLinkReferences": {}
}